:100000000D0A7A00BA021A02050A060A070A080A45
:10001000090A800F4307020A0008FD0C0500000CC6
:100020000600FF0C07004000250026007600770040
:100030007800790070007100FF0C32003300010C71
:1000400034007500180226001906280A2504290A1A
:100050002505470243072E0A0506220A0109470221
:100060004307340A0506220A0109470243073A0AF0
:100070000506220A360077000507170547024307E1
:100080003E0A05073E0A0109470243073E0A0507E3
:100090003E0A0109470243073E0A05073E0A1602C7
:1000A000980192014307620A1702990193014307DD
:1000B000620AF000D0035D0AF10012023800130258
:1000C0003900730A1602980194014307220A1702A5
:1000D000990195014307220AF0036F0AB102140245
:1000E000380015023900100243077D0A1102430748
:1000F0007D0AFF0C320033008A0A1002320011021E
:100100003300F200D203850AF30003041303B301A2
:100110001203B201550C90014307960A010C91019C
:100120004307960AFF0C34003500220A10023400FF
:1001300011023500F4039D0AB50203041503B5014D
:060140001403B401220AC1
:020FFE000000F1
:021FFE00FA0FD8
:00000001FF
